:10000000000004205D0300004503000047030000DA
:10001000490300004B0300004D03000000000000F6
:100020000000000000000000000000004F0300007E
:1000300051030000000000005303000055030000BE
:10004000E122000071AC0000570300004D2A0000BF
:100050005703000057030000ED2500005703000080
:100060005703000057030000570300005703000028
:1000700057030000CD6F0000570300005703000036
:1000800057030000F9180000570300005703000051
:1000900057030000570300005703000057030000F8
:1000A00057030000570300005703000057030000E8
:1000B000570300005703000000000000000000008C
:1000C00057030000570300005703000057030000C8
:1000D0003168000057030000570300005703000079
:1000E0005703000057030000570300000000000002
:1000F000000000005703000000000000570300004C
:1001000000000000000000000000000000000000EF
:1001100000000000000000000000000000000000DF
:1001200000000000000000000000000000000000CF
:1001300000000000000000000000000000000000BF
:1001400000000000000000000000000000000000AF
:10015000000000000000000000000000000000009F
:10016000000000000000000000000000000000008F
:10017000000000000000000000000000000000007F
:10018000000000000000000000000000000000006F
:10019000000000000000000000000000000000005F
:1001A000000000000000000000000000000000004F
:1001B000000000000000000000000000000000003F
:1001C000000000000000000000000000000000002F
:1001D000000000000000000000000000000000001F
:1001E000000000000000000000000000000000000F
:1001F00000000000000000000000000000000000FF
:10020000314932480A1A02D0072291438D463049BB
:1002100030480A1A06D00722914381F30988022246
:1002200082F314882C482D492D4A00F03CF82D48C3
:100230002D492E4A00F037F82D482E492E4A00F05D
:1002400032F82E482E492F4A00F02DF82E482F491B
:100250002F4A00F028F82F482F49304A00F023F8A1
:100260002F483049304A00F01EF83048304900220B
:1002700000F024F82F483049002200F01FF82F4AE0
:1002800090471F481F49884205D00268043003B4D4
:10029000904703BCF7E700208646EC46002000218B
:1002A000274A9047FEE7884207D0521A05D00378C4
:1002B00001300B700131013AF9D17047884202D008
:1002C00002700130FAE770470000042000E00320CC
:1002D00000000420000004206CF300000000002057
:1002E00084000020B8030000B803000048D10000DB
:1002F0006CF300000000002000000020B4D10000DA
:10030000B4D10000B4D10000B4D10000B4D10000D9
:10031000B4D10000B4D10000B4D100006CF30000EF
:10032000F0F30000840000208400002084000020FE
:10033000692500206C250020702500208503000021
:10034000CD2A0000FEE7FEE7FEE7FEE7FEE7FEE758
:10035000FEE7FEE7FEE7FEE700F002B8FFF7FCBFAE
:100360000F484FF00701884385460E4880470E48E6
:10037000016841F470010160BFF34F8FBFF36F8FCD
:10038000FFF73EBF09480A490A4A884207D0521A75
:1003900005D0037801300B700131013AF9D1704773
:1003A00000000420F50D000088ED00E0B4D100004D
:0803B000000000200000002005
:1003B80000487047642500207047000007B5044BCB
:1003C8000093044A402300F032F803B05DF804FBC0
:1003D800E1030000850000202DE9F8438946144612
:1003E800B2B10F4B0F4E0325002743F001082246F8
:1003F80009EB0701002002F05DFC0744241A48B904
:1004080033782BB14FF47A40C047013D02D13570A3
:10041800BDE8F88301233370002CE8D1F8E700BF6A
:10042800C0D1000084000020704702F0A7BCF0B5DE
:1004380095B01C46164608460D4601F0CDFD1A9BA0
:100448000D93CDE9086400242346082205A928460F
:100458000A948DF82C400C9401F0DBFD079B029365
:10046800069B03939DF814308DF8114003F00302A6
:10047800012A1DD1BDF81440059EC3F3C203C4F37D
:1004880083148DF81030A20008230EA9284601F025
:10049800C0FDC6F3952608AB0093224602AB0EA911
:1004A800304600F041FB284601F09AFD15B0F0BD3A
:1004B800022AF8D1BDF81640C3F3C203A4098DF887
:1004C80010300827082C264628BF08263B46324607
:1004D8000EA9284601F09DFDA41B08AB02AA3146CF
:1004E8000EA8374400F084FB002CEBD1DBE70000BA
:1004F80008B5FFF79AFF0421034800F083FA034B7D
:1005080001225A7108BD00BF90D1000000000020F0
:10051800037813F0040216D003F00303012B03D071
:10052800022B09D0012070470A6800880232C0F304
:10053800831002440A60F5E70B684288023303EB34
:1005480092130B60EEE71046704700002DE9F04F5C
:10055800044685B0851C00200F46904601F090F8AF
:10056800454806683E60D0E90132134401339B1BBD
:10057800824600F21C4600F5836900F21447AB423C
:100588001AD30022B8F1000F6FD0052363F30702D6
:1005980064F38912DAF80010DAF808300B400333F4
:1005A8000D444AF823200020CAF8005001F06AF8E8
:1005B800012005B0BDE8F08F0121304601F057FA5F
:1005C800484601F06AFA384601F067FADAF804009A
:1005D800DAF808B0009000EA0B0003300AEB80005C
:1005E8006946FFF795FF009B50BB0BEA03020AEB35
:1005F800820203F1020CD2680192013303EA0B0B69
:100608000AEB8B0B02F00302012ACDF800C0DBF8DD
:100618000C1022D0022A16D08346384601F040FA40
:1006280010B1009BCAF804305946304601F01FFA51
:10063800DAE901231344DAF8002001339B1A9EE714
:100648000BEA0300C9E7BDF806309B0903334FEAFC
:10065800114B0CEB93030093DFE7BDF80430C3F3B1
:1006680083134FEA114B6344F5E7062363F307024C
:1006780064F39F528EE700BF980100200B4B0C4893
:10068800FF2210B59A600022C3F81824C3E900229B
:10069800C3F8142483F8202401F057FC044610B949
:1006A800044801F0C0FC204610BD00BF980100209E
:1006B800A0D10000E4D1000030B50A4C71B10A4A5B
:1006C8000A49121BD20800239A4201D1002030BDEA
:1006D80031F82350854202D00133F5E7034654F838
:1006E8003300F4E748D1000090D10000000000205A
:1006F800094B013903EBC000032909D8DFE801F0F1
:100708000A02040604207047007970474079704750
:10071800002070470220704748D10000034BD3E9FE
:100728000030C31A58425841704700BF9801002052
:100738002DE9F04385B0FFF7F1FF0646002840F0A9
:10074800F7807C4DC5F81804BFF34F8F6868AC6814
:1007580000902040033005EB80006946FFF7D8FE83
:10076800009B18B1D5F81824002A5FD004EA0302C8
:10077800991C013305EB8202234005EB8303D26801
:10078800DB68029302F00303022B0192009162D10D
:10079800BDF8063068484FEA9318B8F1500FC146C3
:1007A80028BF4FF0500969F38F1309F10801ADF81C
:1007B800063001F0E2FB0746002800F0A48001F0B3
:1007C8000BFC01A900230822384601F018FC009907
:1007D80024EA01060136B600B14535D95FFA89F930
:1007E8007EB3F6B2A9EB0609214003315FFA89F41A
:1007F800B146524E05EB810108234A46384601F0BE
:10080800FEFB36B109F1080322463146384601F0AD
:10081800F6FB009B08F1030803EB98030093D5F857
:100828001834002B4BD1D5F810445BE02A689A4263
:1008380004D86A60304605B0BDE8F08304EA0300D6
:1008480088E73E493446D7E72140033108234A4622
:1008580005EB8101DAE7012B55D1BDF804303648A4
:10086800C3F38311062928BF062161F389130231D6
:100878008900ADF8043001F080FB0746002842D01B
:1008880001F0AAFB0023082201A9384601F0B7FBB2
:100898000026BDF80420C2F38312B300964203F188
:1008A8000803BCD200994A1C21400331009205EB91
:1008B80081010422384601F0A2FB0136E9E73846F7
:1008C80001F08EFBFFF72AFF80F00100C6B2B1E706
:1008D800E3685B7923B1236839461B68204698474B
:1008E800E3681C68002CF3D1384601F079FB2046F8
:1008F80000F0C6FED5F818340BB9009B6B600020D9
:1009080000F0C0FEDEE7D5F8104454B90C4B0D4892
:100918000D49C01AC008000440F0020000F06EF84B
:10092800D0E7236820469B689847E3681C68ECE793
:1009380000267FE798010020A0D10000A401002034
:1009480048D1000060D10000F0D100002DE9F74F38
:10095800284C80460F46924601A9012218469B461C
:10096800D4F80890FFF7F2FD80B3019D0026A91C7A
:100978005E4506EB010233D100211F4801F057F80C
:1009880080F310006A1C02EA090204EB82020004E8
:1009980005EA0903033340EA1840D06014F823201D
:1009A80068F3C50204F8232034F8232066F389127B
:1009B80024F8232054F8232067F39F2244F82320A7
:1009C80002F0F80242F0010204F8232094F82034DF
:1009D8001BB1FFF7ADFE0028FBD103B0BDE8F08FD7
:1009E80009EA020204EB82025AF82630D360013683
:1009F800BEE700BF98010020B405002000231A4676
:100A0800FFF7A4BF30B50F49D1F8102400231446CE
:100A18003CB9C468237152B9C1F810042260184661
:100A280030BDE46825799D4206D02468F0E7D26895
:100A3800116821601060F2E701330A2BE7D14FF00B
:100A4800FF33ECE798010020094A38B50123D2F8B2
:100A5800104482F820341D4604B938BDE3685D713E
:100A6800236820465B689847E3681C68F4E700BF82
:100A780098010020037A052B10B50C460FD0437A55
:100A880023B1084A0849204601F064F8074920467E
:100A980001F060F82046BDE8104001F050B8002A87
:100AA800F8D0F3E73BD2000040D2000098D800000D
:100AB800C38873B504460D4633B1144A00921449ED
:100AC800144A284601F046F8217A05291CD0637A91
:100AD8004BB1A088FFF70CFE0F4B104953F82020AC
:100AE800284601F037F8227A0D4BA08853F8226087
:100AF8000021FFF7E1FD0B4903463246284602B0C4
:100B0800BDE8704001F026B802B070BD3BD20000CD
:100B18004BD2000043D2000008D2000040D20000AF
:100B280070D2000063D200002DE9F04385B01F4663
:100B38000C9D002306460C46904695F80C902B73A6
:100B480029463846FFF7B4FFB8F1060F09D8DFE8A1
:100B580008F00412181F283340003146284600F0D8
:100B6800F9FF002229463846FFF784FF85F80C90E4
:100B780005B0BDE8F08322683146284600F0EAFF58
:100B8800EFE7D4E900233146284600F0E3FFE8E721
:100B9800A36800933146D4E90023284600F0DAFF21
:100BA800DFE7E3680193A36800933146D4E90023A3
:100BB800284600F0CFFFD4E723690293E368019346
:100BC800A36800933146D4E90023284600F0C2FF09
:100BD800C7E76369039323690293E3680193A368F2
:100BE80000933146D4E90023284600F0B3FFB8E764
:100BF80008292DE9F84F80460E4617461C463AD874
:100C0800002593F80C901D7319461046FFF750FF06
:100C1800DFF884A0DFF884B0AE422ED918F805209A
:100C28005946204600F096FF0135082DF4D11849A1
:100C3800DFF86CB0204600F08DFF4FF0000A5645F3
:100C480020D918F80A507E2D03D828460BF094FCBA
:100C580000B92E252A465946204600F07BFF0AF1A6
:100C6800010ABAF1080FEAD1012221463846FFF7F6
:100C780001FF84F80C90BDE8F88F5146204600F03B
:100C880069FFD1E70349204600F064FFE7E700BFAA
:100C980036D2000034D2000032D200002CD200003C
:100CA80038D20000074B1B5C1F2B8ABF064A4FF047
:100CB800A04203F01F03D2F80405D840C04300F057
:100CC80001007047CFD2000000030050074B1B5CA7
:100CD8001F2B86BF03F01F0305494FF0A0410122D7
:100CE80002FA03F3C1F80C35704700BFCFD20000F9
:100CF80000030050074B1B5C1F2B86BF03F01F032C
:100D080005494FF0A041012202FA03F3C1F8083562
:100D1800704700BFCFD200000003005008B5002084
:100D2800FFF7E8FF0120FFF7E5FF0220FFF7E2FFEA
:100D38000320BDE80840FFF7DDBF08B50020FFF736
:100D4800C5FF0120FFF7C2FF0220FFF7BFFF032006
:100D5800BDE80840FFF7BABF0A4B185C1F288ABFD6
:100D6800094B4FF0A04300F01F00D3F804250121E0
:100D7800814021EA02000A40C3F80805C3F80C259F
:100D8800704700BFCFD20000000300502E3818BFB4
:100D98004FF0FF3070470000C20710B504460CD56D
:100DA8004FF0A0420323C2F82C37C2F8283AC2F801
:100DB8003C3AC2F8383AFFF7B1FFA30742BF024BEB
:100DC8000C22C3F8382710BD00030050054B1B68E0
:100DD800082B01BF044B1868B0FA80F0400918BF0F
:100DE80000207047300100103401001008B54FF0A2
:100DF80080430022C3F80C21C3F81021C3F838251A
:100E08004FF0805203F54043D2F80414C3F820157C
:100E1800D2F80814C3F82415D2F80C14C3F828150E
:100E2800D2F81014C3F82C15D2F81414C3F83015DE
:100E3800D2F81814C3F83415D2F81C14C3F84015A6
:100E4800D2F82014C3F84415D2F82414C3F848156E
:100E5800D2F82814C3F84C15D2F82C14C3F850153E
:100E6800D2F83014C3F85415D2F83414C3F8601506
:100E7800D2F83814C3F86415D2F83C14C3F86815CE
:100E8800D2F84014C3F86C15D2F84424C3F870257E
:100E9800FFF79CFF10B1384B384A1A60FFF796FFEE
:100EA80018B1374BFB22C3F81825FFF78FFF48B15D
:100EB8003449354B0A681B6822F00F0203F00F0310
:100EC80013430B60FFF782FF18B1304B4FF40072E9
:100ED8001A604FF08043D3F80024D20744BF6FF064
:100EE8000102C3F800242A4AD2F8883043F4700378
:100EF800C2F88830BFF34F8FBFF36F8F4FF01023C6
:100F0800D3F80022002A03DBD3F80432002B2FDAAF
:100F1800204B0122C3F80425D3F80024002AFBD073
:100F28004FF010221221C2F80012D3F80024002A30
:100F3800FBD04FF010231222C3F80422154B1A4697
:100F4800D3F800140029FBD00021C3F80415D2F807
:100F58000034002BFBD0BFF34F8F0D490E4BCA68EE
:100F680002F4E0621343CB60BFF34F8F00BFFDE78D
:100F78000A4B0B4A1A6008BD8C5600404881030092
:100F880000F00040E40E0040580200104096024075
:100F980000ED00E000E001400400FA050800002030
:100FA8000090D003C30710B507D4F0234008054AC2
:100FB800145C23401943115410BD0901C9B20F2311
:100FC800F4E700BF8806002030B5094B1C78094BB0
:100FD800196800239C4202DC0022104630BD11F83B
:100FE8003350854201EBC302F7D00133F2E700BF6B
:100FF80054060020A806002070B504460D46FFF7E9
:10100800E3FF30B1436823B129462046BDE870406C
:10101800184770BD034B044819680022490800F0BE
:101028002EBA00BF580600206006002010B5C0B2D6
:10103800FFF7CAFF0446007801F0C6FA63785A1E23
:1010480053425341834208D1044BD3E9002313434D
:1010580003D1BDE81040FFF7DDBF10BD80060020BA
:1010680038B5354A43080446D35CC2074CBF1B0950
:1010780003F00F030D46042B5CD8DFE803F00323CD
:101088002C383B00002955D00121FFF78BFF0020A9
:1010980000F0F6FA0122A4F12003C4F12000274948
:1010A80002FA03F322FA00F0034302FA04F4D1E946
:1010B800002014430343C1E900430020BDE8384041
:1010C80000F0E0BA002914BF022100212046BDE843
:1010D8003840FFF767BF41B10321FFF763FF2046A0
:1010E8000121BDE83840FFF787BF0121EEE709BBC2
:1010F8000421EBE709B10321E8E7FFF753FF29468D
:101108002046FFF779FF284600F0BAFA0122A4F139
:101118002003C4F12000094902FA03F322FA00F07F
:10112800034302FA04F4D1E9002022EA040420EA85
:101138000303C0E738BD00BF8806002080060020F2
:101148002DE9F041124E134F00243378A34208DCF6
:10115800114BD3E90023134318D0BDE8F041FFF742
:1011680059BF3D6805EBC40815F8340001F02CFAA6
:1011780098F801104B1E594259410A1A514215F864
:1011880034005141FFF76CFF0134DEE7BDE8F08120
:1011980054060020A806002080060020092AF7B57A
:1011A80005460C4616463DD901F03EF9D8B11E4B0E
:1011B8001E481D601E4B1F4F1C701F4B0021202214
:1011C8001E600BF069FB1D4B00200021C3E90001E4
:1011D800013CE4B20326FF2C0BD1194A194800211F
:1011E80000F042F903E001F0E7F80028DFD003B08F
:1011F800F0BD20B29DF806308DF8046005EBC00202
:1012080023F007038DF8063001A9937815F830000C
:101218008DF805303A4601F011F9013CE4B2002896
:10122800D9D0E4E70720E2E7A806002088060020D6
:1012380054060020351000005806002080060020C3
:1012480049110000D4D2000070B5084D084E0024A2
:101258002B789C4201D3002070BD3368012113F81C
:10126800340001F067F90134F2E700BF54060020AA
:10127800A80600201FB50021039001AA44F201002E
:10128800CDE9011100F004F805B05DF804FB000099
:1012980010B572B6FFF7D8FBFFF74AFA0028FBD162
:1012A800104B114C1149E41AE408240444F00100DD
:1012B800FFF7A4FB0E4B1B68DB0700D500BE0D49EA
:1012C80044F00200FFF79AFBBFF34F8F0A490B4B1C
:1012D800CA6802F4E0621343CB60BFF34F8F00BFCC
:1012E800FDE700BF48D1000060D10000E3D2000054
:1012F800F0ED00E0EFD2000000ED00E00400FA0598
:10130800D0E90223D1E90201994208BF90422CBFDB
:1013180001200020704700002DE900480C4800F02B
:10132800D2FA0C4BD3E9002312EB000B43F1000C6B
:10133800094BD3E900239C4508BF934558466146AD
:1013480003D21BF180704CF10001BDE8008800BF9A
:101358000C000020B00600202807002037B50546FD
:101368000C460A4801A900F0EDFA60B10570446026
:1013780001A9064800F010FB18B1054800F0A8FACA
:10138800002003B030BD0420FBE700BF1407002095
:101398000C000020194B1B782DE9304804461BB976
:1013A80000252846BDE830880028F9D0037F03F0DF
:1013B800FF05002BF4D0FFF7AFFFD4E902239942D1
:1013C80008BF904215D3236903B92377D4E90530C0
:1013D800984721690029E3D0237F03F0FF05002BFC
:1013E800DED0D4E9022312EB010B43F1000CC4E96F
:1013F80002BC2146024800F01FFED2E7B8060020D2
:1014080000D3000013B5114B114918680190082347
:101418005822104800F083FA044698B90E4A0F483B
:1014280001A900F041F9044660B901210B4800F018
:101438002DFA01230A4A0948194600F093F9094B85
:1014480001221A70204602B010BD00BFFCD2000075
:10145800BC06002014070020D11400000C00002056
:10146800FFFF7F00B80600203AB103685A614A1EA0
:10147800514251411961002070470720704738B523
:10148800037F04460D4683B98261FFF745FF421981
:1014980041F10003C4E90223236903B12561214610
:1014A8000020BDE83840FFF759BF002038BD0023B1
:1014B800014603770120FFF751BF0000014800F003
:1014C80002BA00BF0C0000202DE9F04F85B0074696
:1014D80000F0E4F940B1594AD2E9003113F18073C0
:1014E80041F10001C2E900310021384600F0E5F978
:1014F80038B1534C236823B12068FFF74BFF002312
:1015080023600121384600F0D8F920B1FFF704FF25
:101518004C4BC3E9000103A94B48494D4B4C4C4E79
:1015280000F04AFA002845D1DFF820A1444CDFF842
:1015380028B1504600F096FD2368002875D07BB18D
:101548002368D0E90201D3E90223994208BF9042F7
:101558002DD223681B7F1BB12168504600F06CFD1B
:10156800504600F079FDD0E9026305460193FFF784
:10157800D3FE019BB6EB000863EB0109B8F1010F3C
:1015880079F1000344DB334EB0453FD9FFF796FFAE
:1015980082194FF496030021584600F003F90028F9
:1015A8003ED1236813B9384600F0D4F8256005B059
:1015B800BDE8F08F0378012B1DD05BB1022B11D150
:1015C8004FF0000A204600F047FD002833D080F88D
:1015D8001CA0F7E741680B7F23B901230B7720464E
:1015E80000F02AFD03A9184800F011FA03A91648CB
:1015F80000F0E2F996E741682B68994202D100238E
:101608002B60EFE7204600F030FDEBE7AA68C0E763
:101618000021584600F047F92846FFF7BBFE01E0D5
:101628000D28F9D00023236083E7002BBFD138466B
:1016380000F094F8BBE701233370D3E7B00600202D
:1016480030070020280700201407002000D30000DE
:10165800B8060020FFFFB4000C00002072B6024A52
:10166800136801331360704734070020034A136876
:10167800013B136003B962B6704700BF340700200E
:10168800FFF7ECBFFFF7F2BF90B200F03BB9435849
:1016980082B03BB10023435043580193019B012082
:1016A80002B070471846FBE7F8B5224B4679224D41
:1016B80043F82620214A224BF7009B1AEA19DB0837
:1016C80012791B0432B143F002001E49FFF796F964
:1016D8000820F8BD02680C88C2F8084590F9042073
:1016E8008978002AA8BF02F1604CD4B2BABF04F0CE
:1016F8000F0EDFF858C00CF5614C4FEA4111C9B222
:10170800B4BF0CF80E108CF8001352090121DFF851
:1017180040C004F01F042F4401FA04F44CF822409E
:10172800397145F83600084943F00300FFF766F9B8
:101738000020CEE7400700203807002048D10000ED
:1017480070D1000026D3000048D3000014ED00E05B
:1017580000E100E0036801221A6070470368012273
:101768005A60704773B501F15005AD000068ADB21D
:101778004FF480348C400026C0F80843C0F8484332
:10178800465101F5A8714559019522F07F42019D06
:1017980040F82120C0F844430BB1C0F8044302B01C
:1017A80070BD00002DE9F74F884699464FF4803602
:1017B800036808F150058E404FEA880AAD00C3F867
:1017C8004863ADB2C3F80863074603EB0A00D3F8D1
:1017D80004154FF0000B22F07F44D0F84025C0F8E4
:1017E800401543F805B05B590093009B531A23F04A
:1017F8007F43012B0BD1244B4FF4806043F001034E
:1018080098473B6843F805B05B590193019B3868DA
:10181800D0F80455C0F84463631B23F07F43012BC1
:101828001AD108F5A878184B013440F8284043F03D
:1018380001034FF4806098473B68D3F804359D4214
:1018480008D13B680020C3F84463C3F8046303B0BD
:10185800BDE8F08F0D20FAE78244C9F1FF19CAF8F4
:101868004045D0F80435E21A013A22F07F4209F5E2
:101878007F499145EED3002AE3D10134CAF84045A7
:10188800D0F804259342DBE720D300000368022246
:10189800C3F8442309B1C3F8042370474FF4827195
:1018A8000068FFF7F4BE4FF4803303FA01F10368D0
:1018B800C3F84813C3F8081370475031890089B238
:1018C8000068FFF7E4BE0368D3F80405704700001A
:1018D80090F9043001215A0903F01F0301FA03F3B8
:1018E8004032024941F82230704700BF00E100E071
:1018F800024B034A1B681068184700BF40070020C6
:101908003807002007B5ADF8000001916A460021AC
:1019180044F20200FFF7BCFC03B05DF804FB10B50D
:1019280061B1B2FBF3F403FB1424A4B244B9C0E9D7
:10193800001484608281C381204610BD0E20FCE71C
:101948000920FAE737B550E8013F9DB2C48925441C
:101958008489A54228BF2D1B0489A54202BFBFF375
:101968002F8F002207E0C5EA030540E80154002C48
:10197800E9D14FF001028DF803200193019B9DF8F6
:1019880003200B6002F0FF0322B10B8800681844A3
:1019980003B030BD1846FBE70A884B889A4209D144
:1019A80050E8012FC2EA024240E80123002BF7D198
:1019B800012070470020704737B550E8023F1FFAF2
:1019C800A3F5C488A54202BFBFF32F8F00220DE004
:1019D800C48925448489A54228BF2D1BC3EA05452F
:1019E80040E80254002CE8D14FF001028DF80320A2
:1019F8000193019B9DF803200B6002F0FF0322B1C5
:101A08004B880068184403B030BD1846FBE70A88C5
:101A18004B889A4209D150E8022FC2EA224240E894
:101A28000223002BF7D1012070470020704750E8AF
:101A3800002F0B4640E8003C9CF0000FF7D1104601
:101A4800704750E8003F43EA010240E8002C9CF050
:101A5800000FF6D11046704750E8002F02EA010344
:101A680040E8003C9CF0000FF6D11046704750E863
:101A7800003F03EB010240E8002C9CF0000FF6D178
:101A88001046704750E8003FA3EB010240E8002CE5
:101A98009CF0000FF6D1104670470121FFF7D1BF27
:101AA8000021FFF7D9BF10B590B1D0E90123016833
:101AB8009B1ADBB20A60013BDBB2FF2B026802D142
:101AC8000020107110BD11684C1C14600B70F2E7F7
:101AD8000E20F7E738B504460020FFF7D1FD22684D
:101AE80063681168994213D9481E106011F8015CA7
:101AF800E368218A01FB0535A36811791B1ADBB25B
:101B0800994200D213710020FFF7BCFD284638BD6A
:101B18000025F8E738B5054600200C46FFF7B0FD6C
:101B28002A681368591C1160E968641A298AB4FB89
:101B3800F1F41C700020BDE83840FFF7A3BD8268AF
:101B480010B504462AB14369016800699847002323
:101B5800A36010BD0EB403B5039921B104AB01AA6B
:101B6800019300F075F802B05DF804EB03B070471C
:101B78000A2938B504460D4602D10D21FFF7F8FFB2
:101B8800A3682268591CA160D554D4E901329A424D
:101B980004D32046BDE83840FFF7D1BF38BD000068
:101BA8002DE9F84F9946DDE90A43174682468846EB
:101BB8000A460126BA420FD24E4538BF4E4613F0A8
:101BC800010B01D164B900240125B9F1010F1AD91B
:101BD80009F1FF397D43F8E7B2FBF7F20136E9E78F
:101BE8009B070ED5B9F1000F0CBF30252025A64262
:101BF800EAD2013C29465046FFF7BAFF002CF6D13D
:101C0800E1E72025F3E7B8FBF5F39F42E2D9DFF8D7
:101C18003C90B8FBF5F3504619F8031005FB138800
:101C2800FFF7A6FFB5FBF7F3BD4207D2BBF1000FE4
:101C380002D00CB1A64203D3BDE8F88F1D46E8E7F1
:101C480020215046013CFFF793FFF2E763D30000E1
:101C58002DE9F74F054617468846002900F03181DF
:101C680018F8011B49B92B7B002B00F02A81284664
:101C780003B0BDE8F04FFFF762BF252940F0C080F0
:101C8800002698F800302D2B424608F1010823D091
:101C9800302B24D02B2B25D000242A2B02F1010134
:101CA80023D13B681A1D1B683A601C440A46137806
:101CB8002E2B26D101324FF0000A104610F8011BD6
:101CC800A1F1300CBCF1090F1DD80A2303FB0A133C
:101CD800A3F1300A0246F0E746F00106D1E746F0E4
:101CE8000206CEE746F00406CBE711F8013CA3F163
:101CF80030000928DBD80A2202FB0434303C0A46AB
:101D0800CBE74FF0000A12F8011B01F0FB0068282E
:101D18009046F8D069290ED04AD8582964D006D8F8
:101D280025296DD098F80030002B99D19BE76329BD
:101D380062D06429F6D13A68D2F80090111D89EA78
:101D4800E9723960A2EBE9724FF0010B092A5BDCFA
:101D5800D34538BFD3462CB1B9F1000F01DB710769
:101D680000D5013CB20702D5BAF1000F04D0F30741
:101D780002D4002C4ED10024B9F1000F52DAC9F177
:101D880000092D212846FFF7F3FE06F00302022A78
:101D980005D1BAF1000F02D1002C47D10024CDE9BA
:101DA800004653460A2249462846FFF7F9FEB9E796
:101DB80073294CD014D87029B4D13B681A1D3A60E5
:101DC800302128461C68FFF7D3FE78212846FFF704
:101DD800CFFE00220823CDE9003221461022E3E796
:101DE80075292BD078299DD139680A1D3A60CDE92B
:101DF80000465346102228E03B681A1D19783A60BD
:101E08002846FFF7B5FE8DE70A230BF1010BB2FB5D
:101E1800F3F29BE7A345AFD220212846013CFFF708
:101E2800A7FEA6E77007B0D52B21ABE7A345B6D22E
:101E380030212846013CFFF79BFEADE73968CDE924
:101E480000460A1D3A6053460A220968ACE73B6817
:101E58001A1D3A60F107D3F8009020D4B9F1000FA9
:101E680025D048460AF094FD0646B44200D9C4B9C4
:101E780009F1FF3920E028460136FFF779FE19F805
:101E880006100029F7D1A642BFF44CAF002C3FF44E
:101E980049AF20212846013CFFF76AFEF3E70026F8
:101EA800EDE720212846013CFFF762FEDDE74E46BC
:101EB800DBE72846FFF75CFE19F8011F0029F8D177
:101EC80030E703B0BDE8F08F2DE9F047B0F8069091
:101ED8004479D2F800A09DF8208009FB04F4043C62
:101EE80006460AEB0300A0420F4688BFA4EB030A8C
:101EF800191DC2F800A0B1FBF9F509FB15114DB980
:101F0800A9EB0104544528BF5446BAF1000F04D187
:101F1800BDE8F0873668013DF1E704317B19701898
:101F28002246B8F1000F0ED001461846AAEB040A63
:101F38000AF089FCD145254436684C464FF000012B
:101F480028BF5446E1E71946F0E7FFF7ACBDF8B5FE
:101F580046790146721E0546002393422D6803D335
:101F68000024A64202D8F8BD0133F6E70F682846D8
:101F7800FFF7D0FD01343946F3E72DE9F843068A27
:101F8800CD1C0746FFF7A6FD043E35440446B5FBC5
:101F9800F6F5F0B14FF48073EDB28380C680013D51
:101FA800076081464FF00008A84512D23846FFF76F
:101FB80091FD064648B163790133637108F1010860
:101FC800C9F8000007608146EEE72046FFF7BFFF2B
:101FD80034462046BDE8F88301210430FFF747BDA9
:101FE80010B5012104460430FFF74CFD10F0FF0F37
:101FF80004D12046BDE81040FFF7A9BF10BD1FB5AA
:1020080003920022009203AAFFF75EFF05B05DF875
:1020180004FB1FB503920122009203AAFFF754FFA5
:1020280005B05DF804FB836800225A609A60C3E932
:102038000422DA601A60704770B5446806460D4697
:10204800206818B1B3682946984718B923682B60E7
:10205800256070BD2468F3E74368186808B1026812
:102068001A6070474368186870474368186800B971
:102078007047884203D102681A60012070470346FE
:102088000068F4E738B5074C051E04F1080318BFCB
:102098001C4623682BB11A6822605B68284698475B
:1020A800F7E738BD4C07002020B9054B01225A70CC
:1020B800FFF7E8BF012802D1014A9070F8E770479E
:1020C8004407002038B5094C23786BB90848636089
:1020D800A3602361E36000F09DF8054600F0A6F8D0
:1020E80001232370284638BD8525FBE744070020D7
:1020F800B120000038B5134CA378054603F0FF0063
:1021080073B115B16B68012098470020FFF7B8FA42
:10211800E3680133E3600020BDE83840FFF7B2BA56
:10212800FFF7AEFA25B1226913463BB92A6025614B
:10213800E368002BECD100F08BF8E9E79D42F7D07B
:102148001B68F2E74407002038B5084C0020FFF769
:1021580097FAE368013BE360E56815B900F08AF88F
:10216800A5700020BDE83840FFF78CBA440700206E
:102178004FF08043D3F81804C0F3004070470000C4
:1021880038B5134C6378054603F0FF0073B115B1F9
:102198006B68002098470020FFF772FA63680133E4
:1021A80063600020BDE83840FFF76CBAFFF768FAB3
:1021B80025B1A26813463BB92A60A5606368002B65
:1021C800ECD100F063F8E9E79D42F7D01B68F2E72D
:1021D8004407002038B5084C0020FFF751FA63681F
:1021E800013B6360656815B900F062F8657000200E
:1021F800BDE83840FFF746BA440700204FF0804357
:10220800D3F80C0400F00110A0F101135842584112
:1022180070470000044A137923B9012110609180A6
:10222800184670478520704758070020074B1A68E2
:10223800D2075FBFC02283F8002301221A604FF043
:1022480080430122C3F81825704700BF00E100E071
:10225800074B00221A6082B01B680193019B4FF064
:1022680080430222C3F8042301229A6002B0704717
:1022780004010040044B01221A604FF08042D2F85A
:102288001834DB03FBD470470C000040074B0022D6
:102298001A6082B01B680193019B4FF080430122B2
:1022A800C3F804231A6002B0704700BF0001004061
:1022B800074B01221A604FF08042D2F80C3403F029
:1022C8000113B3F1011FF8D0024B00225A71704775
:1022D8000400004058070020154B07B51A687AB16A
:1022E80000221A601B680093009B4FF08043012274
:1022F800C3F808230F4B587910B95A711B689847CF
:102308000D4B1A6882B100221A601B680193019B69
:102318004FF080430222C3F80823064B1B680120B4
:1023280003B05DF804EB184703B05DF804FB00BF89
:1023380000010040580700200401004000F18040DF
:1023480000F5C040002382B0036003680193019B3D
:1023580002B0704703681F2B83BF03F01F0303609D
:1023680001484FF0A04070470003005007B50190A6
:1023780001A8FFF7EFFF019B00EB8300D0F80027CF
:1023880022F44032C0F80027D0F8003743EA01436E
:10239800C0F8003703B05DF804FB0000054B4FF0B0
:1023A800FF32072843F8202084BF1B1883F85820E1
:1023B800704700BF6007002010B5174C94F86A30CA
:1023C80043BB04F130033021FF22013911F0FF0132
:1023D80003F8012BF9D1C8B2FFF7E0FF01310C294E
:1023E800F9D1062200210D480AF056FA0C4BC022FA
:1023F80083F8062340221A604FF4BE70FFF79EFF51
:10240800084B4FF00042C3F80423012384F86A30D4
:10241800002010BD0820FCE760070020C40700204A
:1024280000E100E000600040034B93F86A000030D0
:1024380018BF0120704700BF60070020F7B53B4E6A
:102448003318054693F93030002B6CDA8B78C3F3D8
:102458004003002B0BBF082400240C2008208442D2
:1024680002D1042003B0F0BD56F82470013743D1DF
:10247800701946F8242080F8304013B9331983F8CE
:1024880058508B785A0717D4D80737D501A8019523
:10249800FFF760FF019B00EB8300D0F8003723F0C3
:1024A8000203C0F800372248EA0805F007070123AD
:1024B800BB40875C3B43835488780A7810F002005D
:1024C80028D0A40004F1804404F5C0442D02D4F8B7
:1024D800103523F44F3323F44073C4F81035120435
:1024E800D4F8103505F47C5502F4403215431D43E9
:1024F800C4F810550020B5E70134B0E701A84A78C0
:102508000195FFF727FF019B03F5E073920040F860
:102518002320C8E7083C344494F8605045EA821206
:1025280084F860209EE708209CE700BF6007002031
:10253800C407002073B5224C2518064695F93020AB
:10254800072A19DD224492F858309B09032B0FD132
:10255800019001A8FFF7FEFE019AD0F81035D3408C
:10256800DB0707D402213046FFF700FF02B070BD39
:10257800012BF7D00321F6E7D3B2072BF6D8930047
:1025880003F1804303F5C043D3F8100540F0010080
:10259800C3F8100502F14000800080B2FFF7CEFEBC
:1025A8000029E3D095F9303054F82330002BDDD0E2
:1025B800012303FA02F2034BC3F80423D6E700BF52
:1025C800600700200060004007B5019001A8FFF7F0
:1025D800C1FE019BD0F81005D84000F0010003B0FF
:1025E8005DF804FB2DE9F04F002489B0CDE90244E1
:1025F800624D4FF48072012102F1804303F5C0431C
:1026080090B21B68012B06D1D5F804330B4202D0D7
:10261800FFF794FE0C430432B2F5907F4FEA410174
:10262800EAD1574B1B68012B0ED14FF4BE70FFF750
:1026380085FE4FF0A04344F00044D3F810350293D0
:10264800504BD3F81035039314F0FF0F1AD04E4FA8
:1026580000250126344210D0AB0003F1804303F576
:10266800C043D3F81005D3F8101557F8253023B117
:10267800C1F30141C0F3052098470135082D4FEA01
:102688004606E7D1002C75DA0DF1100800230493F3
:10269800C8F804304FF0FF33CDE90633DFF8E8A07F
:1026A800DFF8E89000273D4619F9014B631C48D034
:1026B800E4B2012324F0C00604F0070203FA02F290
:1026C800F00808AB191811F8083C134239D00AEB86
:1026D8000603A40993F930305AF823B0BBF1000F70
:1026E80008D1032C2DD118F800C04CEA020C08F8C8
:1026F80000C001E0032CF6D001A80196FFF72AFEDE
:10270800019B11F8181C03F5E07C114250F82C00CD
:10271800C0F3014005D0022813D1032C0BD1214668
:1027280004E003280DD1032C05D102213046FFF720
:102738001DFE0135EDB2BBF1000F02D02146304637
:10274800D8470137042FAFD1A5B14FF0A043029964
:10275800D3F8102503F540739142D3F8103502D110
:102768000399994206D002920393049A059B069214
:10277800079395E709B0BDE8F08F00BF00600040FF
:102788007C6100400003005060070020C007002063
:102798001FB54B7DDBB2022B07D0032B0FD0012BCB
:1027A80000D1436205B05DF804FB00238DF80430C6
:1027B8000293039301A88B6889699847F2E701237C
:1027C8008DF80430D0F83C350293D0F84C35F0E75A
:1027D8002DE9F74F6D4E05799E461C2303FB0563D3
:1027E8001B7D002B40F0CE8091F810C0BCF1030F88
:1027F80000F2CA800C680068FF2C00F0B7801F2C1C
:10280800CF7C87BFDFF8908104F01F0323464FF089
:10281800A04803F5E0733F0248F823704F68FF2F84
:1028280000F0A7801F2F8BBF07F01F033B46DFF880
:1028380068814FF0A04803F5E0734FF0000948F8AD
:102848002390D1F80C8091F81290B8F11F0F8CBF2B
:1028580008F01F03434603F5E0738CBFDFF838A187
:102868004FF0A04A4FEA89094AF82390D1F8089016
:10287800B9F11F0F8BBF09F01F034B46DFF818A1F2
:102888004FF0A04A03F5E07B00234AF82B30C0F84C
:102898000895C0F81075C0F80C454C7CC0F8148534
:1028A800E41A18BF0124BCF1020FC0F83435C0F88F
:1028B8003835C0F84435C0F848355DD0BCF1030F51
:1028C8005DD0BCF1010F01D144F00204C0F85445B9
:1028D8000B7DC0F85C354B7DC0F8C0350023C0F8CF
:1028E8000431D0F804410194019CC0F82831D0F893
:1028F80028410094009CD0F8004244F00404C0F839
:1029080000421C2404FB0564637540F20243C0F8CE
:102918000433030BA260C4F818E05CB28A7D002C73
:10292800A8BF04F16041DBB24FEA4212BBBF03F01B
:102938000F07174901F56141D2B2AABFD2B2CA55F1
:1029480081F800236409012203F01F03114902FAE8
:1029580003F341F824301C2303FB05650223C0F868
:1029680000352A75002003B0BDE8F08F4FF0FF3422
:1029780054E74FF0FF3764E744F00404A6E744F057
:102988000604A3E70820EEE70720ECE7CC070020C1
:1029980014ED00E000E100E00003005030B50179DB
:1029A8000068020B53B201245B0902F01F0204FA0B
:1029B80002F22033074C0025C0F8005544F82320C4
:1029C8004FF0FF33C0F80833034B1C2202FB0131E0
:1029D8000D7530BD00E100E0CC07002070B504792A
:1029E800049D3CBBB5F5803F24D2B2F5803F21D28F
:1029F80021B101F06044B4F1005F1DD123B103F0AF
:102A08006044B4F1005F17D10D4C667D032E03D8E6
:102A1800DFE806F004140404032070BDC4E90313BE
:102A2800012322600068656005496375FFF7B0FE01
:102A38000020F2E70920F0E71020EEE70820ECE795
:102A4800CC07002013B51B48D0F82831DBB11A4B4E
:102A58001A4900221A601B680093009B4B7DDBB269
:102A6800012B10D10A68CC68C0F84445C0F8482545
:102A78004A680C69C0F83445C0F8382583620223D7
:102A88004B75FFF785FE0B48D0F8043183B10C4B2A
:102A98000A4900221A601B680193019B4B7D022B97
:102AA80006D103234B7502B0BDE81040FFF770BE96
:102AB80002B010BD0030004028310040CC07002093
:102AC8000431004070B5FFF7FDFA0020FFF758FB0E
:102AD800FFF794FB0028FBD04FF480410020FDF75E
:102AE800CDFD08B1FEF7C6FBFDF702FDFEF78AFC37
:102AF80008B1FEF7BFFB002301224FF0A0410320DD
:102B08000133202B38D14FF0A0444FF44C4500211D
:102B1800C4F808550120C4F80C1509F091FB08B158
:102B2800FEF7A8FBC4F80C551F4D0023C4F8083560
:102B380045F001054FF47A744FF47A40A847013CF8
:102B4800FAD14FF0A043194E4FF44C42C3F8082570
:102B58003546C3F80C450021084605F04BF802F04D
:102B680023FC306000F060F905F06AF870B128685D
:102B780002F01EFC2C60EEE702FA03F414F44C4F4A
:102B88001CBF03F5E07441F82400B9E7286802F097
:102B9800A8FC286805F05AF8286802F0ADFC00285F
:102BA800E2D120BFE0E700BFA0D30000E807002083
:102BB8000369C1688B429DBF8268D21802F1FF3257
:102BC80003F1FF3394BF501A581A70472DE9F041AA
:102BD800D0E9027405463E1B406896422044884668
:102BE800144404D909F02FFEEC60BDE8F0813246A8
:102BF800E41B09F028FE224608EB06016868F1E7A5
:102C08002DE9F843C5680646894617464FF000087F
:102C18003469B3687068A54228BFE418013C621B98
:102C28005C1BBC4228BF3C46944228BF1446494618
:102C38002844224609F007FEB3682544AB4208BF82
:102C480000253F1BA044A144F560E1D14046BDE802
:102C5800F883000010B5114C114AA2610223C4E99F
:102C68000433104BE361A2644FF400730E4A2362ED
:102C7800E264002310220D49A362E01D6362E3624F
:102C8800A3656365E365226509F039FE08492046B6
:102C980009F035FE2023A37110BD00BFEC0700200A
:102CA800A6D300007408002064080020AFD30000F9
:102CB800B3D30000F8B5184C182300FB033503FB09
:102CC80000402544C46A012C0F46164611D024B191
:102CD800022C1BD000242046F8BD2846FFF768FFC9
:102CE800B042F8D3324639462846FFF76FFF3446DC
:102CF800F1E72846FFF75CFF8642344628BF0446C2
:102D0800224639462846FFF761FFE4E72846BDE832
:102D1800F840FFF775BF00BFEC0700202DE9F04130
:102D2800154C1E4623780546884617460BB9FFF70B
:102D380091FF2369AB421BD90020FEF7A1FC65B1C6
:102D4800182305FB0332A11803FB054344F802804E
:102D580000224F601E629A625A62182303FB0544E0
:102D6800069BE3620020FEF78DFC0020BDE8F081A1
:102D78004FF0FF30FAE700BFEC070020FFF76ABF0B
:102D880000F54C7002F060BCF7B50446002501263A
:102D98000F4600F0B3F984F82D53234684F82E53D8
:102DA800394684F82F631C4A04F54C7002F036FC4F
:102DB8004FF40203C4F83833FB22822384F83A35EF
:102DC80084F83F3584F83B25201D2246A4F83C535F
:102DD80084F83E5384F83C6584F83D5584F83E55A4
:102DE80084F8405584F8415584F8425584F8435591
:102DF8000A4901F021FD224609490A4804F022FE49
:102E08000523009604F24472194604F23F5004F078
:102E180091FE204603B0F0BD25300000892D00004A
:102E2800A3300000612F000010B5054C0146204674
:102E3800FFF7AAFF00F0F8F9844200D0FEE710BDC2
:102E4800780A0020F7B5BDF82470042F044672D91B
:102E5800BDF8200004286ED9042A6CD9187800F02F
:102E68000300022867D1087800F00300022862D125
:102E780094F82E037E1FB6B200F0FF05002858D143
:102E880093F804C0D87850EA0C200CD086420AD3B4
:102E980091F802E091F801C04CEA0E2C604502D886
:102EA800012584F82E5394F82D03C0B2012811D1BE
:102EB80091F804C0C97851EA0C210BD08E4209D38D
:102EC8009E785B7843EA0623994203D8022384F864
:102ED8002D33054694F82F335BB157B14AB100231F
:102EE80084F82F33022384F83A3384F83A3584F887
:102EF8003F3594F82D33012B1FD1B4F8381304F261
:102F08003A3094F82E3313B304F2447205235E1F4B
:102F1800B6B284F83B63360A84F83C6394F82D43D0
:102F2800661E74427441009404F004FE284603B0FF
:102F3800F0BD0025B7E70025CCE794F82E331BB188
:102F480004F23F500521DCE704F23A50FAE704F2B4
:102F580044524FF40073DAE730B4BDF80840BDF8C6
:102F68000C50CDE9024530BCFFF76CBFF7B5061D24
:102F78000546304601F06BFD002840D1284600F098
:102F880059F908B104F044F9304601F0ACFD0746A0
:102F9800A8BB304601F0F2FEB0F5FE7F044600D330
:102FA800FEE7014605F23F32304601F0D1FD84428A
:102FB80000D0FEE7230A611D85F83E3389B201235C
:102FC80085F82D33009385F83D43A5F838133B4623
:102FD8003A4605F23A3004F0ADFD052809D040B173
:102FE80005F54C7085F82D7303B0BDE8F04002F08C
:102FF8002BBB304603B0BDE8F04001F078BE03B00B
:10300800F0BD90F82D3303F0FF0223B1022A04D15A
:10301800002380F82D33FFF7A9BF704708B500F0EB
:1030280003F9BDE80840FFF7ECBF13B590F8473542
:1030380090F84825044643EA022200F2495100F07C
:10304800B0FE002384F82E3394F82D23012A0FD0E4
:10305800FB2284F83B23012284F83C23009304F2EA
:1030680044524FF40073052104F23A5004F062FD13
:1030780002B010BD10B590F82D33022B044603D1D1
:1030880000F54C7002F0E0FA94F82E3323B1204694
:10309800BDE81040FFF7C9BF10BDFFF7EBBF182808
:1030A80026D8DFE800F0280D0F1125131517252560
:1030B8002525191B1D1F2525252525252523210007
:1030C800012070470E2070470B2070470C20704776
:1030D800092070470320704702207047042070477A
:1030E8001120704712207047132070471420704732
:1030F80000F5804070470020704700002DE9F84334
:103108000646044646F8041B4FF40072894600F14F
:10311800D101304601F083FB0025266504F15403F4
:1031280004F17402C3E9005508339A42FAD1A4F8AD
:103138007450C4E91E5504F1800001F05CFE354B63
:10314800C4F8A0304FF6FF78C82304F1AC07A4F800
:10315800A430314A84F898502346C4F89C5084F827
:10316800A65084F8A750A4F8A8804946384602F02B
:1031780055FA00230022C4E92E23C4E9302304238E
:1031880084F8C830254BC4F8B4501B68C4F8CC3058
:10319800236884F8D05084F8D15284F8D25284F845
:1031A800D35284F8105384F8115384F8125384F8D6
:1031B800135384F8145384F8155384F8165384F879
:1031C800175384F8188384F81953C4F81C53C4F8A7
:1031D8002053C4F82453C4F8285384F82C5303B953
:1031E800FEE70F4B0F491C602246304601F027FBD3
:1031F8003C22002104F5357009F04EFB77220021AE
:1032080004F1B80001F0F2FF384602F01DFA20463A
:10321800BDE8F88300F8FF071D350000C8D300009B
:10322800C811002083350000014B1868704700BFA3
:10323800C811002090F8C830042B1ABF90F89800E5
:1032480080F0010000207047013804289ABF024B23
:10325800185C0020704700BFC3D30000F8B511F018
:103268000F0508D1022A04D11A462946B83001F0C0
:10327800BDFF28460CE090F8D36290F8D272F41B98
:103288000E2C06DDB8300E22002101F0AFFF03201E
:10329800F8BD90F8D142AC4217D0BE4215D93C4691
:1032A8000E2C02D90F3CE4B2FAE7B43400EB8404E4
:1032B80094F804C01CF0100F0DD00CF00F0EAE45A2
:1032C80009D16FF3041C84F804C034460E2C05D9C8
:1032D8000F3CE4B2FAE70137FFB2DEE7B43400EBA3
:1032E80084040136257961F30305E9B241F0100140
:1032F80062F346112171626863F3DE12626080F83E
:10330800D3620020C4E713460222FFF7A7BF38B5EF
:1033180011F0300F00F1500408BFC0F89C2015468A
:1033280000230622204601F02FFF48B929462046EF
:1033380001F072FE20B92046BDE8384001F007BF11
:1033480038BD2DE9F74304460E46014668469146C6
:10335800984601F093F8DDE900570DB9F90717D53C
:1033680004F150084B4606223146404601F00CFF56
:10337800D8B97B10FA0704EB030044BFE3585D5942
:10338800A84790B9404603B0BDE8F04301F0DFBE5E
:10339800B8F1000F07D00D223146204603B0BDE832
:1033A800F043FFF7B4BF4246F6E703B0BDE8F08349
:1033B80070B50446002694F8D25294F8D332AB4242
:1033C80037D0B43504EB85021379D90616D404EB4B
:1033D80085052B796FF304132B7194F8D2320133DE
:1033E800DBB20F2B84F8D232E5D194F8D33284F8CB
:1033F800D2620E2B1AD90F3BDBB2FAE7C3F30301F3
:10340800526803F06003402B41F08001C2F3D712E9
:1034180005D12046FFF77BFF0028D8D070BDB3FA4E
:1034280083F35B092046FFF78CFFF5E784F8D33276
:10343800C1E70020F2E700002DE9F04FD0E92E2384
:10344800134385B0044651D0B83001F0CDFE2F4F5C
:1034580001900025019AEBB2934247D2D4E92E039A
:10346800C5F1200103FA01F1A5F1200220FA05FABD
:1034780023FA02F24AEA010A4AEA020A00230AF097
:1034880001021343A5F12003C5F12006029301D1DF
:103498000135DFE70C236B43D919DA5962BB4A6857
:1034A800772A09D12068039203F098FE082898BF6C
:1034B800174B039A98BF1A5C80212046FFF727FF15
:1034C800A0B9029A012303FA02F923FA06F603FACD
:1034D80005F8D4E92E2349EA060922EA080023EA76
:1034E800090150EA0103C4E92E01D1D1012384F86E
:1034F8002C3305B0BDE8F08F94F82C33002BE0D0C6
:10350800012380212046FFF71CFFD9E7CCD3000018
:10351800BAD30000014B1868FFF78EBFC81100200E
:1035280010B590F89830044633B1D0F8CC308B42BF
:1035380004BF002380F898302046FFF739FFD8B938
:1035480094F8D01099B101230C222046FFF7F9FE18
:1035580090B994F8C83084F8D000042B07D0201D07
:1035680001F073FA0123C4F8CC0084F8983020469F
:10357800BDE81040FFF760BF10BDFFF7D1BFF8B539
:1035880000F1500405462046069EBDF81C7001F067
:10359800FBFD50B93A463146286D01F07EFB20B953
:1035A8002046BDE8F84001F0D2BDF8BD2DE9F04F46
:1035B800042B87B004460F46924602D0052B16D03E
:1035C800FEE7014604A801F0C7F8DDE904654FF0FD
:1035D800070905F0010B9EB9BBF1000F10D10D22B0
:1035E80039462046FFF78FFE07B0BDE8F08F014649
:1035F80004A801F0D1F84FF00809DDE90465E8E70F
:1036080004F18008404601F0B2FC0DF10A0203A95A
:10361800404601F08CFC404601F0B0FC6D100023E0
:1036280084F814336019BBF1000F01D063599E5917
:10363800B047012384F81433054618B1FFF72FFD6E
:103648000246CDE7BDF80A300193039B00934A4632
:10365800534639462046FFF792FF0028C4D02A4631
:10366800BEE708B50022FFF74EFE08BD38B5044690
:10367800006801F09FFE722280212046FFF747FE76
:10368800054648B104F1B8007722002101F0AEFDEB
:1036980004F1AC0001F0D8FF024B00221A60284662
:1036A80038BD00BFC811002030B5C3B004460D4670
:1036B800002301A98030019301F01CFC40B1FFF701
:1036C800EEFC294602462046FFF721FE43B030BDF6
:1036D8008DF8070154F8500B0199FF2302AA01F055
:1036E80060FE4FF46F5306222946204601F04CFD38
:1036F8000028EBD102A9204601F0C9FC0028E5D139
:10370800204601F024FDE1E710B50446006801F009
:103718005AFE0146206DBDE8104001F0ADBA10B563
:103728000446006801F0C8FE0146206DBDE810405F
:1037380001F0A2BA37B502A90023054641F8043DB5
:10374800803001F0B2FB044690B99DF80410286857
:1037580001F0B4FE044658B9286801F034FE38B1C7
:1037680095F8123323B10449286801F03BFE04465A
:10377800204603B030BD00BF7140000010B50446BC
:10378800006803F09FFE002818BF0221206D08BFC3
:103798000021BDE8104001F06FBA37B502A9002337
:1037A800054601F8013D803001F03DFB044650B963
:1037B8009DF807301BB1022B08D8012100E0014613
:1037C800286803F081FE204603B030BD0724FAE7DD
:1037D80010B5044654F8500B01F073FE014620461C
:1037E800BDE8104001F0D7BB13B504460DF1060142
:1037F800803001F046FB20B9BDF80610206801F0C2
:1038080062FE02B010BD10B50446006801F05EFE0D
:1038180008220146206DBDE8104001F03EBA13B5FC
:103828000822044601A9803001F056FB18B9019915
:10383800206801F04DFE02B010BD10B5044654F8E2
:10384800500B01F048FE01462046BDE8104001F04B
:10385800A2BB90F81213006D01F00EBA37B502A999
:103868000023054601F8013D803001F0ECFA0446DA
:1038780078B9286801F0A7FD38B19DF807302868A5
:1038880053B1074901F0AEFD04469DF8073085F8AD
:103898001233204603B030BD01F09AFDF4E700BFB3
:1038A80071400000F8B505460E460024012707FAC6
:1038B80004F33342E1B204D10134202CF7D10020C3
:1038C80004E0286D01F0D8F90028F5D0F8BD0023F0
:1038D800F7B505460C460B6000F180070126B5F8E0
:1038E8008620B5F888309A420FD00DF10701384686
:1038F80001F099FA50B99DF807301F2B08D82268B3
:1039080006FA03F313432360E9E7002003B0F0BD90
:103918000720FBE7D0F8A010FFF7C4BF13B502A932
:10392800002341F8043D0446FFF7D1FF10B9019B7D
:10393800C4F8A03002B010BDB0F8A410503001F0A7
:103948002ABB00F1A401803001F09BBA10B50446EF
:10395800006801F038FD50B194F9183301330CBFF9
:1039680000210221206DBDE8104001F085B9014613
:10397800F8E7000037B502A90023054601F8013D24
:10398800803001F050FA044628B99DF8073013B189
:10399800022B03D00C24204603B030BD286801F068
:1039A80012FD0028F7D095F91833013316D1D5F850
:1039B800A020AAB1531E134012D15208D9B203F164
:1039C800010009D185F81833B5F8A420054B2868FB
:1039D80001F013FD0446DEE70346EEE70D24DAE7BF
:1039E8000724D8E7E94100002DE9F84F0546B8302B
:1039F80001F0FAFBDFF85890834600244FF00C0AD8
:103A080005F15008E3B29B451FD9D5E93023C4F12D
:103A1800200022FA04F603FA00F0A4F1200123FAA8
:103A280001F106430E4306F001020023134301D1BE
:103A38000134E7E70AFB04F3404653F8091001F0A4
:103A4800EBFA0028F4D0BDE8F88F0020FBE700BFB0
:103A5800CCD30000F7B500230022C0E93023044688
:103A680000F1800700F1B806B4F88620B4F8883071
:103A78009A420BD001A9384601F017FA054648B911
:103A880001220199304601F0F3FBEDE700252846B5
:103A980003B0F0BD012341F2080280212046FFF760
:103AA80050FCF4E713B5044601A9803001F0FDF994
:103AB80028B90122019904F1B80001F0D9FB02B03C
:103AC80010BD13B5044601A9803001F0EEF928B9FC
:103AD8000246019904F1B80001F0CAFB02B010BD1A
:103AE800D0F89C10503001F097BA10B500F150048E
:103AF8000421204601F090FA28B920460321BDE8A8
:103B0800104001F089BA10BD0321503001F084BA89
:103B18000021503001F080BA10B500F150040521A1
:103B2800204601F079FAA8B90C21204601F074FA70
:103B380080B91821204601F06FFA58B92221204691
:103B480001F06AFA30B9204640F20121BDE8104080
:103B580001F062BA10BD10B5044601F02DFC014613
:103B680004F15000BDE8104001F091BA0121006D48
:103B780001F082B80021006D01F07EB80421006DCB
:103B880001F07AB80C20704713B5044669460068FE
:103B980001F0A3FC08226946206D01F07EF802B00E
:103BA80010BD0221503001F00DBB90F8C810006D17
:103BB80001F062B873B504460E4680300DF1070176
:103BC80001F031F9A0BB9DF80730042B07D801227A
:103BD80002FA03F111F01B0F02D14B0703D40323A0
:103BE80084F8C83001E084F8C820002384F8D03075
:103BF8000C22012331462046FFF7A3FB94F8C83076
:103C0800042B054608D070B9201D00F01EFFC4F82B
:103C1800CC00012384F8983015B184F8D0600025D1
:103C2800284602B070BD074B1B68C4F8CC30F0E7DB
:103C3800FFF735FA314602462046FFF768FB05468E
:103C4800EEE700BFC8D30000712A10B51C460CD09F
:103C5800B2F56F5F06D00C2A0AD1FFF7ABFF2070D0
:103C6800012010BDFFF720FDF9E700F0DBFBF6E7C8
:103C78000020F6E7F0B585B004460D46002601465B
:103C880002A817468DF8076000F0ECFCDDE9022376
:103C980003F0010102B9C1B15B1084F81463E018A4
:103CA80009B1E3589A58904701228DF8070084F823
:103CB8001423C8B93B4629462046FFF7CFFA8DF8AA
:103CC80007009DF8070005B0F0BD0DF107033A465F
:103CD80029462046FFF7B8FF0028F2D10D222946D1
:103CE8002046FFF710FBEAE7FFF7D9F90246F6E7A7
:103CF80073B50D4602A9002341F8043D04468030FF
:103D0800164601F0D2F8014650B1FFF7C8F9294626
:103D180002462046FFF7F7FA0146084602B070BD92
:103D2800B31E032BF9D8DFE803F002090F0F019B3C
:103D3800002229462046FFF791FAEDE7019A294625
:103D48002046FFF797FFE7E73346019A29462046C2
:103D5800FFF72CFCE0E737B504460D46803001A993
:103D680001F0A3F858B9019A052A14D8DFE802F03F
:103D780003090E0E0E0E29462046FFF772FC03B00B
:103D880030BD29462046FFF771FCF8E72946204652
:103D9800FFF7AEFFF3E7052229462046FFF7B3FAFF
:103DA800EDE7F7B502AD0123002700F180060446D0
:103DB80080F8143305F8017D304601F029F8042312
:103DC80084F8C83084F898702946304601F02BF8FA
:103DD80080B99DF807100B060CD5D4F8203311F0E4
:103DE800300F03F10103C4F8203308D0062220461F
:103DF800FFF78DFA002384F8143303B0F0BD204692
:103E0800FFF7A9FF38B19DF80710FFF748F90246F8
:103E18002046FFF778FA94F8D22294F8D3329A42DF
:103E280002D02046FFF7C4FA9DF8073094F8D12253
:103E380003F00F0332B19A421EBFD4F82423013293
:103E4800C4F824230F2B14BF0133012384F8D13283
:103E5800D0E700002DE9F0410446B83001F0C4F97C
:103E68000C4E074600254FF00C085034EBB29F4229
:103E78000ED908FB05F39A19127A0AB90135F5E744
:103E88009959204601F0C8F80028F7D0BDE8F0811C
:103E98000020FBE7CCD3000010B50446006803F00F
:103EA8000DFBC1B2206DBDE8104000F0E5BE10B5B5
:103EB8000446006803F05EFDC1B2206DBDE8104005
:103EC80000F0DABE13B504460DF10701006803F0EF
:103ED8006FFB30B99DF80710206D00F0CDFE02B0E1
:103EE80010BDFFF7DCF8014604F1500001F06AF953
:103EF800F5E713B502A90023044601F8013D803017
:103F080000F0B3FF20B99DF90710206803F05FFBAC
:103F180002B010BD13B504460DF10701006803F0A7
:103F280033FB30B99DF80710206D00F0A5FE02B0F4
:103F380010BDFFF7B4F8014604F1500001F042F952
:103F4800F5E713B502A90023044601F8013D8030C6
:103F580000F08BFF20B99DF90710206803F01EFBC5
:103F680002B010BDFEE7FEE710B5044601F0B7FA4F
:103F7800FFF76AF90146206DBDE8104000F07CBEED
:103F880010B50446006801F095FF01462046BDE8DB
:103F98001040FFF787BC10B50446006801F08EFF9B
:103FA80001462046BDE81040FFF77CBCF8B500F19B
:103FB800500406460D4617468021712306222046E6
:103FC80001F0E2F8014600284CD1002F46D1AA881A
:103FD8002968204601F04BF8002843D1297C306D30
:103FE80000F04AFE00283DD18021306D00F044FEEB
:103FF800002837D1AB7C13F0010F14BF102100212A
:10400800204600F0C8FF68BB204601F058F848BBBE
:10401800A979306D00F030FE20BB697C306D00F06E
:104028002BFEF8B9D5E90223204600F0C3FFC8B932
:10403800204601F063F8A8B9204601F040F888B995
:104048003946204600F0E8FF60B9204601F056F8EE
:1040580040B92046BDE8F84001F079B8204600F0A4
:104068009AFFB9E7F8BD0000014B1868FFF79EBF3B
:10407800C81100202DE9F04190F81713064615469F
:10408800984600296CD041F080011AB313681F7854
:10409800C7F30017002306F1500486F817330622E9
:1040A800204601F071F800285AD14046FEF7F7FF84
:1040B8000146204600F0B0FF002851D13946306D46
:1040C80000F0DAFD00284BD135B92046BDE8F041B3
:1040D80001F03DB81746DDE7B8F1000FF5D1A98822
:1040E800204600F058FF00283AD1AA882968306D88
:1040F80000F0D3FDA0BB297C306D00F0BDFD78BB7E
:104108008021306D00F0B8FD50BB4146204600F0DC
:1041180042FF28BB204600F0D2FF08BBA979306DCA
:1041280000F0AAFDE0B9697C306D00F0A5FDB8B9D2
:10413800D5E90223204600F03DFF88B9204600F06B
:10414800DDFF68B9204600F0BAFF014640B92046B5
:1041580000F062FF20B9204600F0D0FF0028B4D05C
:10416800BDE8F08101480068FFF784BFC81100204E
:10417800F8B5FF23044690F9187380F818330546FC
:1041880054F8500B0E46154901F02CF93923062234
:104198008021204600F0F8FFF0B9F9B2286D00F050
:1041A8006BFDC8B9F1B2286D00F066FDA0B92046D4
:1041B80000F0CDFF80B9802130230622204600F090
:1041C800E3FF014640B9286D00F056FD20B92046AE
:1041D800BDE8F84000F0BBBFF8BD00BF714000006B
:1041E800014B1868FFF7C4BFC811002010B504467A
:1041F80054F8500B01F0FEF801462046BDE8104087
:1042080000F00ABF90F81913006D00F035BD10B525
:1042180000F219310446803000F015FE30B994F8E8
:1042280019132068BDE8104001F0EAB810BD73B555
:104238000446006801F028F90546B8B904F180067B
:10424800B4F88830B4F886209B1A9BB2012B0DD99C
:104258000DF10601304600F014FE30B9BDF8061025
:10426800206801F0D9F80028EAD00546284602B0AF
:1042780070BD73B50446006801F012F90546B0B97F
:1042880004F18006B4F88830B4F886209B1A9BB2F3
:10429800072B0CD9082201A9304600F01DFE28B9C9
:1042A8000199206801F0C2F80028EBD0054628469D
:1042B80002B070BD13B504460DF10601803000F060
:1042C800E0FD20B9BDF80610206801F0C1F802B081
:1042D80010BD13B50822044601A9803000F0FCFD8A
:1042E80018B90199206801F0BDF802B010BD13B5E6
:1042F80004460DF10601803000F0C3FD20B9BDF879
:104308000610206801F088F802B010BD13B502A9A4
:104318000023044641F8043D0822803000F0DCFD0B
:1043280018B90199206801F081F802B010BD0000A9
:1043380013B502A90023044601F8013D803000F0BE
:1043480082FD60B99DF80730206853B994F812339C
:104358000BB101F03DF80021206801F031F802B0FE
:1043680010BD012101F02CF80028F8D194F812337F
:10437800002BF4D00249206801F034F8EFE700BFC1
:104388007140000013B504460DF10601803000F0BD
:1043980078FD20B9BDF80610206801F016F802B0C3
:1043A80010BD73B500F180060C460DF1020201A99B
:1043B800304600F0C7FD054678BBBDF802207F2ACD
:1043C8002ED82546A28055F8060B019908F03BFA2D
:1043D8002946304600F027FD0546F0B94FF44873EA
:1043E8002382A37C43F00203A37404F11001304636
:1043F80000F019FD88B904F11101304600F013FDF1
:1044080058B90DF10101304600F01DFD28B9A37C13
:104418009DF8012062F34103A374284602B070BDE1
:104428000625FAE738B5044600680D4600F0CBFFCC
:10443800E8B1206800F0D9FF0146D0B12046FFF767
:10444800B0FF034648B905F00F0384F817330A494B
:10445800206800F0CCFF034668B11846FEF71FFE3F
:10446800294602462046BDE83840FEF750BF0D23D6
:10447800F3E70323F1E738BD6D410000262A00F079
:104488008A8030D8082A78D017D8032A7BD007D852
:10449800012A4FF0000300F0868076D94E4A63E087
:1044A800052A4FF000035ED0C0F08D80062A68D040
:1044B800072A74D00023036057E0202A67D007D862
:1044C8000C2A5CD00D2A6CD0092AF3D1434B4FE05B
:1044D800222A4FF0000378D05BD3242A5DD0252A06
:1044E800E8D13F4B44E0372A63D017D8312A64D04B
:1044F80007D8292A6BD0302A5DD0272ADAD1394B40
:1045080036E0342A51D003D8322AD3D1364B2FE0A3
:10451800352A4CD0362ACDD1344B29E041F20B2331
:104528009A4256D00BD841F208039A4247D041F23A
:1045380009039A4245D0382ABCD12D4B18E0B2F570
:10454800804F14D005D841F203339A42B2D1294B97
:104558000EE044F201039A420DD044F202039A425B
:10456800A8D1254B04E0254A026043607047244BDC
:1045780003600023F9E7234BFAE7234BF8E7234BC3
:10458800F6E7234AF0E7234BF2E7234AECE7234B0D
:10459800EEE7234AE8E7234BEAE7234AE4E7234B1D
:1045A800E6E7234BE4E7234ADEE7234BE0E7234B28
:1045B800DEE7234BDCE7234BDAE7234BD8E7234B33
:1045C800D6E7234BD4E7234ACEE7234ACCE7234B4D
:1045D800CEE7234BCCE700BF5F3B0000AB3B0000BE
:1045E8001D3F0000B73E000041390000D9370000E8
:1045F800853700000D4200006F3F0000213B00009E
:104608006D3F0000713F0000913B0000B33B00008C
:10461800753B0000113B0000E93A0000113700002B
:1046280027370000A13E0000CD3E0000853B00007A
:104638007D3B0000F33A00000F38000043380000CB
:104648005B380000553900001D390000F1390000C1
:104658005D3E0000193B0000893F00009F3F0000BD
:10466800F5410000342A46D01AD8242A37D009D870
:10467800202A4CD0212A36D0072A08D1254B03609E
:10468800002336E0302A3AD004D8252A29D000233E
:1046980003602EE0312A30D0322AF8D11E4BEEE7E3
:1046A800382A22D006D8362A4FF000031FD028D93E
:1046B8001A4A1DE041F203339A4224D005D841F248
:1046C80008039A42E3D1164BD9E741F204339A42E0
:1046D8001BD041F205339A42D9D1124BCFE7124B86
:1046E800CDE7124BCBE7124BC9E7124BC7E7124A8B
:1046F800026043607047114BC1E7114BBFE7114B94
:10470800BDE7114AF4E7114BB9E7114BB7E7114B75
:10471800B5E700BF8D3B00004B390000653800004D
:104728005D3A00007B420000FB3E00004B3F00006A
:104738003D370000A3370000F1370000273800009C
:10474800253900007D3900008D4300001742000024
:10475800374200003943000041F204339A420CD03A
:1047680041F205339A424FF000030BD041F20801A1
:104778008A4209D1054A026002E0054B0360002322
:1047880043607047034AF6E70360F9E7AD3A000073
:10479800F74200001543000041F204339A420CD05E
:1047A80041F205339A424FF000030BD041F2080161
:1047B8008A4209D1054A026002E0054B03600023E2
:1047C80043607047034AF6E70360F9E7CB3A000015
:1047D800BD420000DB42000010B5036803625A1EA8
:1047E80011468B4202D904892144FAE74162022129
:1047F8000177C0E90A330021016380F8341080F89A
:1048080035104FF6FF71C1868363934202D901893F
:104818000A44FAE7C0E90F23C0E9113310BD10B507
:1048280000230160114441600281C0E90333C0E9FB
:104838000533FFF7D1FF10BDC0E903127047C0E987
:1048480005127047012B0AD002D3022B0ED1FEE7C6
:10485800114442688A4209D80389C91AFAE7891AB1
:1048680002688A4202D903891944FAE70846704760
:10487800012B0ED002D3022B15D1FEE78A423FBF8F
:1048880043685B1A0168511A2CBF511AC91888B2BB
:1048980070478A4281BF436800689A1A091A94BF10
:1048A800891A8918F3E70021F1E710B514461212A6
:1048B8000A700122FFF7C6FF047010BD10B5134639
:1048C80001220C78FFF7BEFF00782402204480B252
:1048D80010BD2DE9F041876A90F81C80C26A0E4627
:1048E800434639460446FFF7C3FF0128054614D955
:1048F800424639462046FFF7E1FF023DC5F30D0564
:10490800354340EA0502434692B239462046FFF74E
:10491800CCFFE36AA362BDE8F081E762FBE72DE91B
:10492800F047067F022E80460F4691461C4622D04D
:104938004D68836A9D4221D13346C26A2946FFF7F2
:1049480097FF3F68824633463A4629464046FFF776
:104958008FFF2044504511DC94B119F8013B3B709E
:10496800394698F81C3001224046FFF76BFF013C9E
:10497800A4B20746F0E70D20BDE8F0870720FBE763
:104988002046F9E72DE9F047057F022D04460F463A
:104998001CD04E68836A9E4218D1D0F82C802B46D2
:1049A80042463146FFF764FF3F6881462B463A4648
:1049B80031462046FFF75CFF814507D92B46424622
:1049C80039462046BDE8F047FFF752BF0020BDE852
:1049D800F0872DE9F041067F022E04460F4616D0D7
:1049E8004D68836A9D4214D13346C26A2946FFF74F
:1049F8003FFF3F68804633463A4629462046FFF740
:104A080037FF804505D9E7620020BDE8F0810D2019
:104A1800FBE70720F9E738B5037F022B044612D0DD
:104A28000021FFF756FF227FA06A04EB8203196A70
:104A380021631862E56815B123462069A847022357
:104A48002377002038BD0D20FCE7006B7047C26B50
:104A5800436A9A4205D1836B006A1B1A584258412F
:104A680070470020704790F8353033B9C36B426AFD
:104A78009B1A18BF012380F8343070472DE9F8439A
:104A880090F8346000EB86070446D7F82080656C00
:104A98002564454522D0324629462046FFF70EFFB9
:104AA800030402D5BB6B9D4218D1C0F30D023346F7
:104AB800023229462046FFF7C5FE33468146606428
:104AC800022229462046FFF7BDFE8145A064DED0BC
:104AD800012384F835300020BDE8F883032384F8E7
:104AE80035301720F8E708B50146FFF7B0FF68B979
:104AF8000846FFF7B8FF91F834300E3351F82330E9
:104B0800C1E91033BDE80840FFF7B8BF172008BD5A
:104B180090F8350003281ABFB0FA80F04009012048
:104B2800704790F83520012A38B504460ED1816CBB
:104B380090F834300D78FFF785FE636CA0649842D6
:104B480002D12046FFF79AFF284638BD0025FBE72B
:104B5800F8B50646154657181446631BBC429BB267
:104B680009D03046FFF7D4FF28B93046FFF7D9FF00
:104B780004F8010BF1E71846F8BDD0E90E23416AA5
:104B880099420CD1017F012909D00168531E99422D
:104B980002D902891344FAE74362C3637047016A82
:104BA80091420AD1027F42B141680133994202D849
:104BB80002899B1AFAE7036283637047037F022B1B
:104BC80006D0083350F82330C0E90A3302230377AC
:104BD800FFF7D3BFF8B5047F022C05460F4600D176
:104BE800FEE72346C66AB4FA84F464090122314612
:104BF8000834FFF727FE55F82430834203D0377076
:104C0800E8620020F8BD2846FFF7D8FF0320F9E73F
:104C1800D0E90A32934270B504461BD1027F0832AC
:104C2800002150F82260B3420CBF4FF40046002622
:104C3800FFF7D0FF054658B901462046FFF7CAFFDF
:104C4800054628B9237FA16A32462046FFF72DFE84
:104C5800284670BD0025FBE738B5037F022B0446C4
:104C68000D4607D0FFF7D4FF18B9E36A2B60A36A93
:104C78006B6038BD0D20FCE738B5037F022B044676
:104C88000D4608D0FFF7C4FF30B929462046BDE8D5
:104C98003840FFF79FBF0D2038BDF8B5037F022BC2
:104CA80007460D46164610D0FFF7B2FF044650B926
:104CB8002E44B54207D015F8011B3846FFF78AFF86
:104CC8000028F6D004462046F8BD0D24FBE738B589
:104CD8000D460446FFF772FF0DB1012D00D125776F
:104CE800237F083354F82330C4E90A3338BD2DE94B
:104CF800F0470446FFF7ABFE00283BD12046FFF7FC
:104D0800B2FE94F8349004EB89080B26D8F8387072
:104D1800D8F820A03D46AA4516D04A46294620463E
:104D2800FFF7CCFD030401D5BD420DD1C0F30D0240
:104D380029464B4602322046FFF784FD013E16F015
:104D4800FF060546E7D1FEE7C8F838502046FFF7CA
:104D580014FF656900264FF6FF7384F83560E38613
:104D680055B1A06994F8342023463946A8473046FF
:104D7800BDE8F0871720FBE72846F9E72DE9F0475B
:104D8800C48E4FF6FF739C4205462FD1FFF75FFE96
:104D9800044670BB2846FFF766FE95F8348005EB9D
:104DA80088030B26D3F83890D3F820A04F46BA458D
:104DB80018D0424639462846FFF780FD030401D53E
:104DC8004F450FD1C0F30D02144439464346023211
:104DD8002846FFF737FD013E16F0FF06A4B2074646
:104DE800E5D1FEE795F8353003B1EC862046BDE8FD
:104DF800F0870024FAE70022C0E90022C0E9022275
:104E0800704700228388C280038182728381704741
:104E1800002908BF002210B501608280FFF7F1FF6A
:104E28008388838110BDC388028910B55C1C9442B5
:104E38009FBF0268D35C0B70C3889BBF0133C380DC
:104E48000620002010BD13B50C460DF10701FFF731
:104E5800EAFF18B99DF8073013B9207002B010BDE9
:104E6800012B0CBF23700620F8E713B50C460DF193
:104E78000701FFF7D8FF10B99DF80730237002B07B
:104E880010BDC288038930B5941C9C420BD80468B5
:104E9800A3185D78A35C43EA05230B80C38802331B
:104EA800C380002030BD0620FCE737B5C388044620
:104EB8000D4601890068C91A184401AA00F02CFAA5
:104EC8000028C1BFE388C018019BE080D2BF06203C
:104ED80000202B6003B030BD10B5C488038922447C
:104EE8009A42DDBF03681B190B600620DCBFC28035
:104EF800002010BD38B5C3880D4601895A1C8A4266
:104F0800044601D9062038BD0068C91A184407F0BC
:104F180025FCE3882289D21A92B28242F2D9226809
:104F28001A44013318442A60E0800020EBE710B4EB
:104F38000389C4881B1B9BB213805DF8044B1A4677
:104F4800FFF7CABF73B50E460DF1060105461446B4
:104F5800FFF797FF48B9BDF8062031462846FFF706
:104F6800BBFF10B9BDF80630238002B070BDC388FE
:104F780083810389C381837AC37270478389828856
:104F88009A4281BFC380C3890381C37A86BF837273
:104F980000200D20704738B504460D460068C9B298
:104FA800FFF76AFE28B9290A2068BDE83840FFF7EC
:104FB80063BE38BD70B5D1B20446006816461D46BA
:104FC800FFF75AFE38BBC6F307212068FFF754FEE7
:104FD80008BBC6F307412068FFF74EFED8B9310E6B
:104FE8002068FFF749FEB0B9E9B22068FFF744FE30
:104FF80088B9C5F307212068FFF73EFE58B9C5F305
:1050080007412068FFF738FE28B9290E2068BDE857
:105018007040FFF731BE70BD13B50A46044606213D
:10502800684600F0A6F9694682B22068FFF735FEA7
:1050380002B010BD70B504460D4611F00F0118BF3F
:10504800002300680EBF84F82410012184F824305E
:105058001646FFF73CFE29462068FFF70DFE28B9E3
:1050680031462046BDE87040FFF7D6BF70BD70B529
:105078000E46114605461446FFF78DFF30B9224605
:1050880031462868BDE87040FFF707BE70BD38B5E7
:10509800044608460D4607F07BFC4FF6FF72824235
:1050A80028BF0246294692B22068FFF7F6FD01465E
:1050B80020B92068BDE83840FFF7DEBD38BD10B51F
:1050C80090F824100329044616D800EBC1010431D6
:1050D8000068FFF7C1FD70B901462068FFF7CCFDF5
:1050E80048B901462068FFF7C7FD20B994F8243075
:1050F800013384F8243010BD0D20FCE773B590F817
:105108002410044611B90D2002B070BD0139C9B28E
:105118000825042680F8241015FB01610144006865
:10512800FFF730FC0128EED994F82410023880B239
:105138008DF8040015FB0161E8408DF80500022395
:105148000DEB060221442068FFF7E9FBDCE710B508
:10515800044694F824302BB12046FFF7CFFF0028EF
:10516800F7D010BD2068BDE81040FFF754BC10B55B
:1051780000F1280104460068FFF76EFD18B994F89D
:10518800243084F8253010BD38B504461D46FFF795
:1051980051FF48B92046FFF7EAFF28B929462046BB
:1051A800BDE83840FFF738BF38BD10B500F1280119
:1051B80004460068FFF70DFC18B994F8253084F808
:1051C800243010BD38B504460D46FFF7EEFF50B940
:1051D80001462046FFF720FF28B929462046BDE8AA
:1051E8003840FFF719BF38BD1F2070472DE9F04838
:1051F8001E4D00230C2606FB03F467598F4230D15D
:105208002C44646894422CD1D0E90272C3F1200680
:1052180002FA06F6A3F1200127FA03FB22FA01F1AC
:105228004BEA060B4BEA010B0BF00104002554EA8C
:105238000502C3F12001A3F1200610D1012202FAD0
:1052480006FC22FA01F102FA03FBD0E900234CEA3A
:10525800010C4BEA02044CEA0305C0E90045BDE82D
:10526800F08801331F2BC6D1F9E700BFCCD300006B
:105278002DE9F74F0023274F94468E461C460122FE
:105288000C2101FB03F57919097A00293AD0EE5966
:10529800764537D1A3F12005C3F1200402FA05FBB6
:1052A80022FA04F44BEA040B02FA03FA6FEA0A043E
:1052B8006FEA0B05CDE90045D0E90289BCF1000F82
:1052C80016D048EA0A0449EA0B05C0E90245DDE9B7
:1052D8000089D0E9004508EA040809EA05094446B6
:1052E8004D46C0E9004566B1002003B0BDE8F08F27
:1052F800DDE9004504EA080405EA0905C0E90245B4
:10530800F1E70C4601331F2BBAD1002CECD1072052
:10531800EBE700BFCCD30000F0B5002423468B4256
:10532800C3EBC3070ED0052B0CD0C65C06F07F0577
:10533800BD402C43350603F10103F0D402B11460DB
:105348001846F0BD4FF0FF33FAE77F280BD9B0F5C8
:10535800804F0AD3B0F5001F09D3B0F1805F34BF86
:105368000420052070470120704702207047032061
:10537800704770B504461046FFF7E7FF81420DDA23
:1053880070BD63F07F0301F8013BD2090E1BB542E3
:10539800D3B2F6D103F07F036355F1E72146451EEA
:1053A800F4E7503000F024BA00F0CAB80120704782
:1053B80000F0DCB800F0D8B80048704740D50000CD
:1053C800103000F060BA007C7047103000F087BAE7
:1053D800037C13B1024802F027B80D20704700BFC4
:1053E800D0110020103000F084BA406B70471030A4
:1053F80000F09CBA203000F011BB103000F0B0BAB9
:1054080008B5037C23B1034802F061F8002008BD09
:105418000D20FCE7D0110020037C13B1024802F0F4
:1054280059B80D20704700BFD011002007B5037C84
:1054380053B16846012200F0AFFA6946034802F00A
:105448005AF803B05DF804FB0D20FAE7D0110020EC
:10545800037C13B1024802F058B80D20704700BF12
:10546800D011002007B5037C53B16846012200F033
:1054780093FA6946034802F059F803B05DF804FB53
:105488000D20FAE7D011002008B5037C23B10348AA
:1054980002F056F8002008BD0D20FCE7D0110020CE
:1054A80008B5037C23B1034802F04DF8002008BD7D
:1054B8000D20FCE7D0110020407C7047103000F030
:1054C800FDB9408A7047103000F0EBB926307047BC
:1054D800103000F0FAB9808C704701F0D9BE012075
:1054E800704710B50446FFF761FF20B12046BDE8BC
:1054F800104000F0B7B810BD10B50446FFF756FFCE
:1055080018B12068003018BF012010BD704738B5A9
:105518000446002500F086F8C4E9015504F10C00A2
:1055280000F042F8214604F1100000F09BF92146F2
:1055380004F1500000F0ADF884F85150204638BD11
:1055480010B5064C94F851302BB92046FFF7DFFF11
:10555800012384F85130014810BD00BFD01100204C
:1055680000487047D011002001F026BE90F8513055
:105578002BB1002380F851300C3000F001B870478F
:10558800034A138803B9FEE7013B1380704700BF45
:105598002812002031B16FF00043994208BF012161
:1055A800016070470121FBE737B50D4C23884FF6A2
:1055B800FF729342054600D1FEE753B904210DEB73
:1055C800010001F08DFD00B1FEE701990548FFF7E4
:1055D800E1FF238828460133238003B030BD00BF94
:1055E800281200202C120020026848F24E33A2FB39
:1055F800032313EB520244BF22F00042013202603F
:1056080010467047034B1B8803B9FEE70248FFF7B3
:10561800EBBF00BF281200202C12002002600022DD
:10562800426070470022026070470000036823B997
:10563800016049600348FFF769BF5A684A605960CA
:1056480001607047D011002010B54468014624B9A4
:105658000348FFF7EBFF204610BD1820FCE700BF0A
:10566800D011002038B500250468056054B1606881
:1056780084421CBF436863604560036808BF002418
:105688009847F3E738BD012001F0EABB002001F09C
:10569800E7BB704701F010BC10B403460C46114636
:1056A80028B12046034A5DF8044B07F03DB85DF881
:1056B800044B70472BD6000013B500220C4601A9F5
:1056C80007F05DF8019B20601B78002B14BF0620B3
:1056D800002002B010BD012937B51D4607D00724A8
:1056E800069A29462046FFF7D7FF03B030BD01A927
:1056F8001068FFF7E1FF04460028F1D10198A0F1F6
:105708000B030F2BEBD8C0B201F0CAFBE8E7012965
:1057180037B51D4610D101A91068FFF7CDFF044623
:1057280018B99DF9040001F0C1FB069A29462046E4
:10573800FFF7B2FF03B030BD0724F6E72DE9F74FB6
:10574800DDF830908246144698460E46002935D03A
:10575800224D136800270C2202FB07FB18465BF852
:1057680005100192009307F0ECF8DDE90032B8B9B2
:105778005D44711EAA686D685310D2070AEB0300D6
:1057880044BF5AF803305D59CDF83090012ECCBF94
:10579800221D00224346AC4603B0BDE8F04F6047E7
:1057A8000137042FD8D10E48CDF830904346224611
:1057B800314603B0BDE8F04F01F01ABB01F06AFBB7
:1057C800084A094B002808BF1346084A494640467C
:1057D80003B0BDE8F04F06F0A7BF00BF40D60000F9
:1057E800D011002091D5000089D500009AD500007D
:1057F800F0B50E46E5B007461D464FF4807100230C
:10580800304614468DF80F3006F0A8FFFF2819D847
:10581800314624A807F073F8202304AA0DF10F01DC
:1058280024A800F04FFB03280CD0072810D088B913
:105838009DF80F100095234604AA3846FFF77EFF0F
:1058480065B0F0BD044A2946204606F06DFFF7E72B
:10585800024AF8E7024AF6E7B3D50000D5D50000BA
:105868000AD6000010B50B22002342704FF6FF72D3
:10587800044603704280C0E90133C360103000F071
:105888009FF8204610BD38B504460D46103019B1B2
:1058980000F0E8F810B138BD00F0FAF825700020E3
:1058A800F9E738B5037804460D462BB1103000F0FF
:1058B800B9F86580002038BD0D20FCE7037813B1E6
:1058C8004170002070470D20704708B5037823B158
:1058D800103000F0B3F8002008BD0D20FCE708B533
:1058E800037823B1103000F0A3F8002008BD0D2084
:1058F800FCE738B5037804460D4633B141781030DB
:1059080000F0DAF800B9656038BD0D20FCE700004A
:1059180010B4436823B11AB903485DF8044B18471B
:105928005DF8044B704700BFD011002038B50378EC
:1059380004460D462BB1103000F076F900B9A56089
:1059480038BD0D20FCE7000038B5856804461DB158
:105958000248A8470023A36038BD00BFD01100202B
:1059680038B51D46037804462BB1103000F028FAEC
:1059780000B9E56038BD0D20FCE7000010B50378DC
:1059880004462BB1C3681BB1024898470023E36063
:1059980010BD00BFD011002012B1012A05D07047F8
:1059A8000B6803604B684360704701F108030138D6
:1059B80013F8012D00F8012F8B42F9D17047000030
:1059C800F8B5144E044630460F4601F079FD4FF6FF
:1059D800FE73A38001230025A3737F23E373207044
:1059E800657065802561304601F064FD3946606167
:1059F80004F1180000F020FA2346074AC4E90755C5
:105A080043F8242F2046E362C4F80650C4F80A502D
:105A1800F8BD00BFD0110020A15D0000007840F063
:105A280004007047014801F04EBC00BFD0110020AF
:105A38008180014801F056BCD011002007B50B68E1
:105A4800C0F806304B68C0F80A3001226846FFF7F4
:105A5800A3FF6946024801F042FC03B05DF804FB6D
:105A6800D011002010B54378044663B9074801F007
:105A7800BBFC50B9054801F0D7FC30B96378012B5D
:105A880001D001236370002010BDFEE7D011002073
:105A980010B50446243000F0FDFA064801F0C4FCB5
:105AA80030B9044801F0AAFC10B9637803B16070FA
:105AB80010BD00BFD011002010B50446044801F005
:105AC800C1FC20B96378022B1CBF0223637010BD90
